:100000000EC01DC053C01BC01AC019C018C017C0F5
:1000100016C015C014C013C012C011C07FC0112477
:100020001FBECFE5D1E0DEBFCDBF10E0A0E6B0E05F
:1000300001C01D92A83AB107E1F735D16BC1E0CFFD
:100040002091600030916100232BB1F49FEF9FB9A4
:1000500012BE91E093BF9FE49EB921E030E030935F
:1000600061002093600080938200109283001092C0
:100070008100109280000895FFCF109261001092CD
:1000800060001092A7001092A60084E58DB9A89A8E
:100090008BB780628BBF84E689BD82E08ABD87E42E
:1000A0008EB98FEF8FB9B99AB89808951F920F92B1
:1000B0000FB60F9211248F939F9381E083BF12BEDE
:1000C00015BA88E48EB98091600090916100892B07
:1000D00049F41092A3001092A2001092A70010926F
:1000E000A6000EC01092A7001092A6008091A20058
:1000F0009091A3004E9724F01092A3001092A200BA
:1001000083E090E09093610080936000B9989F91A4
:100110008F910F900FBE0F901F9018951F920F9206
:100120000FB60F9211242F933F938F939F93EF93CA
:10013000FF93809160009091610082309105B1F150
:100140003CF4009709F48DC0019709F08FC008C0F6
:100150008330910509F449C0049709F087C062C053
:1001600080918000909181002091820030918300E5
:10017000821793074CF08FEF8FB98FE48EB91092EE
:1001800061001092600072C0B99AFC01E05AFF4F02
:1001900082818695869580688FB989E48EB982E0E0
:1001A00090E0909361008093600060C02091800097
:1001B00030918100F901E05AFF4F828190E0E5E043
:1001C000880F991FEA95E1F78F618FB98DE48EB999
:1001D00081E090E090936100809360002F5F3F4F3B
:1001E000309381002093800041C08091A2009091C3
:1001F000A3002FB1FC01E05AFF4F24A30196909376
:10020000A3008093A2008FE48EB98FEF8FB984E0B2
:1002100090E090936100809360001092A50010928E
:10022000A40024C081E085BB8FE48EB98FEF8FB925
:100230008091A4009091A5009C012F5F3F4F3093C7
:10024000A5002093A40004978CF0109261001092F6
:10025000600081E090E09093A7008093A60013BE19
:1002600005C081E085BB13BE80E48EB9FF91EF919C
:100270009F918F913F912F910F900FBE0F901F90E4
:10028000189548E050E020E030E0B901660F771F94
:10029000282F217030E0262B372B869541505109AD
:1002A000A1F7822F0895BC9AE8DE7894E2E6F0E0A8
:1002B00080E090E041E050E09C0127703327642FFC
:1002C00001C0660F2A95EAF7619301968E31910578
:1002D00099F780E1B5DE8091A6009091A700892B67
:1002E000B9F08091A2009091A300E4E8F0E0A2E6CA
:1002F000B0E020E030E004C041914D932F5F3F4FCC
:1003000028173907CCF39CDE1092A7001092A600A4
:080310000000E1CFF894FFCFDB
:00000001FF
